:100000000C942A000C9447000C9447000C94470071
:100010000C9447000C9447000C9447000C94470044
:100020000C9447000C9447000C9447000C94620514
:100030000C9447000C94A3060C9447000C944700C2
:100040000C9447000C9447000C9447000C94470014
:100050000C94470011241FBECFE5D8E0DEBFCDBF12
:1000600010E0A0E6B0E0EAE1FFE002C005900D92EA
:10007000AE3CB107D9F710E0AEECB0E001C01D9284
:10008000A73DB107E1F70E94E4060C948B070C949E
:100090000000DF93CF930F92CDB7DEB78983A7E23D
:1000A000B0E0E7E2F0E0808180648C93A7E2B0E00A
:1000B000E7E2F0E080818F778C93A7E2B0E0E7E29F
:1000C000F0E080818F7D8C93A7E2B0E0E7E2F0E082
:1000D00080818E7F8C93A7E2B0E0E7E2F0E0808140
:1000E0008D7F8C93A7E2B0E0E7E2F0E080818B7F28
:1000F0008C93A7E2B0E0E7E2F0E08081877F8C9309
:10010000A7E2B0E0E7E2F0E080818F7E8C93A6E288
:10011000B0E0E6E2F0E080818F778C93A6E2B0E079
:10012000E6E2F0E080818F7D8C93A6E2B0E0E6E22B
:10013000F0E0808180618C93A6E2B0E0E6E2F0E03E
:100140008081877F8C93A6E2B0E0E6E2F0E08081D8
:100150008E7F8C93A6E2B0E0E6E2F0E080818260E0
:100160008C93A6E2B0E0E6E2F0E0808184608C93BC
:100170000F90CF91DF910895DF93CF93CDB7DEB786
:10018000A6E2B0E0E6E2F0E0808180688C93CF9157
:10019000DF910895DF93CF93CDB7DEB7A6E2B0E04D
:1001A000E6E2F0E0808188608C93CF91DF91089542
:1001B000DF93CF93CDB7DEB7A6E2B0E0E6E2F0E0A2
:1001C00080818F778C93CF91DF910895DF93CF93C8
:1001D000CDB7DEB7A6E2B0E0E6E2F0E08081806471
:1001E0008C93CF91DF910895DF93CF93CDB7DEB796
:1001F000A6E2B0E0E6E2F0E0808180628C93A0E5C8
:10020000B0E0E0E5F0E080818E7F8C93A0E5B0E087
:10021000E0E5F0E080818D7F8C93A0E5B0E0E0E543
:10022000F0E080818B7F8C93CF91DF910895DF93F5
:10023000CF9300D0CDB7DEB71A8219820E94E600B4
:10024000E6E2F0E0808182958F70882F90E08170E7
:1002500090700097A9F3A6E2B0E0E6E2F0E08081BA
:1002600080618C93E4E2F0E08081282F30E0E5E2C9
:10027000F0E08081882F90E0982F8827822B932BA5
:100280009A83898389819A810F900F90CF91DF9112
:100290000895DF93CF93CDB7DEB7EAE3F0E080EFC8
:1002A0008083E7E3F0E08FEF8083E4E3F0E08FEF1B
:1002B0008083E1E3F0E08EEF8083CF91DF910895BA
:1002C000DF93CF9300D0CDB7DEB789836A8389816E
:1002D000883080F58A818130A1F4ABE3B0E0EBE3B4
:1002E000F0E08081482F8981282F30E081E090E084
:1002F000022E02C0880F991F0A94E2F7842B8C9378
:10030000C2C08A81882309F0BEC0ABE3B0E0EBE352
:10031000F0E08081482F8981282F30E081E090E053
:10032000022E02C0880F991F0A94E2F78095842359
:100330008C93A9C089818830B0F18981803198F58A
:100340008981885089838A818130A1F4A8E3B0E053
:10035000E8E3F0E08081482F8981282F30E081E0B8
:1003600090E0022E02C0880F991F0A94E2F7842BB6
:100370008C9389C08A81882309F085C0A8E3B0E006
:10038000E8E3F0E08081482F8981282F30E081E088
:1003900090E0022E02C0880F991F0A94E2F7809520
:1003A00084238C9370C089818031B0F18981883138
:1003B00098F58981805189838A818130A1F4A5E3F0
:1003C000B0E0E5E3F0E08081482F8981282F30E01C
:1003D00081E090E0022E02C0880F991F0A94E2F794
:1003E000842B8C9350C08A81882309F04CC0A5E3EC
:1003F000B0E0E5E3F0E08081482F8981282F30E0EC
:1004000081E090E0022E02C0880F991F0A94E2F763
:10041000809584238C9337C089818831A0F18981AC
:10042000803288F58981885189838A818130A1F45D
:10043000A2E3B0E0E2E3F0E08081482F8981282F39
:1004400030E081E090E0022E02C0880F991F0A94EC
:10045000E2F7842B8C9317C08A818823A1F4A2E34E
:10046000B0E0E2E3F0E08081482F8981282F30E07E
:1004700081E090E0022E02C0880F991F0A94E2F7F3
:10048000809584238C930F900F90CF91DF910895E6
:10049000DF93CF9300D0CDB7DEB78A838A818830CF
:1004A00090F4E9E3F0E08081282F30E08A81882F02
:1004B00090E0A90102C0559547958A95E2F7CA01D7
:1004C0008170898350C08A818830C0F08A818031F0
:1004D000A8F48A8188508A83E6E3F0E08081282F9F
:1004E00030E08A81882F90E0A90102C05595479598
:1004F0008A95E2F7CA018170898335C08A8180318B
:10050000C0F08A818831A8F48A8180518A83E3E32C
:10051000F0E08081282F30E08A81882F90E0A901C7
:1005200002C0559547958A95E2F7CA018170898383
:100530001AC08A818831B8F08A818032A0F48A8119
:1005400088518A83E0E3F0E08081282F30E08A81BF
:10055000882F90E0A90102C0559547958A95E2F74A
:10056000CA018170898389810F900F90CF91DF91AB
:100570000895DF93CF930F92CDB7DEB7898389813A
:100580008830A0F4ABE3B0E0EBE3F0E08081482FEB
:100590008981282F30E081E090E0022E02C0880F90
:1005A000991F0A94E2F784278C9356C0898188307A
:1005B000D0F089818031B8F4898188508983A8E39B
:1005C000B0E0E8E3F0E08081482F8981282F30E017
:1005D00081E090E0022E02C0880F991F0A94E2F792
:1005E00084278C9339C089818031D0F0898188310A
:1005F000B8F4898180518983A5E3B0E0E5E3F0E0B8
:100600008081482F8981282F30E081E090E0022E00
:1006100002C0880F991F0A94E2F784278C931CC0AC
:1006200089818831C8F089818032B0F4898188510C
:100630008983A2E3B0E0E2E3F0E08081482F898182
:10064000282F30E081E090E0022E02C0880F991F31
:100650000A94E2F784278C930F90CF91DF9108954D
:10066000DF93CF9300D0CDB7DEB789836A838981CA
:10067000883080F58A818130A1F4AAE3B0E0EAE312
:10068000F0E08081482F8981282F30E081E090E0E0
:10069000022E02C0880F991F0A94E2F7842B8C93D4
:1006A000C2C08A81882309F0BEC0AAE3B0E0EAE3B1
:1006B000F0E08081482F8981282F30E081E090E0B0
:1006C000022E02C0880F991F0A94E2F780958423B6
:1006D0008C93A9C089818830B0F18981803198F5E7
:1006E0008981885089838A818130A1F4A7E3B0E0B1
:1006F000E7E3F0E08081482F8981282F30E081E016
:1007000090E0022E02C0880F991F0A94E2F7842B12
:100710008C9389C08A81882309F085C0A7E3B0E063
:10072000E7E3F0E08081482F8981282F30E081E0E5
:1007300090E0022E02C0880F991F0A94E2F780957C
:1007400084238C9370C089818031B0F18981883194
:1007500098F58981805189838A818130A1F4A4E34D
:10076000B0E0E4E3F0E08081482F8981282F30E079
:1007700081E090E0022E02C0880F991F0A94E2F7F0
:10078000842B8C9350C08A81882309F04CC0A4E349
:10079000B0E0E4E3F0E08081482F8981282F30E049
:1007A00081E090E0022E02C0880F991F0A94E2F7C0
:1007B000809584238C9337C089818831A0F1898109
:1007C000803288F58981885189838A818130A1F4BA
:1007D000A1E3B0E0E1E3F0E08081482F8981282F98
:1007E00030E081E090E0022E02C0880F991F0A9449
:1007F000E2F7842B8C9317C08A818823A1F4A1E3AC
:10080000B0E0E1E3F0E08081482F8981282F30E0DB
:1008100081E090E0022E02C0880F991F0A94E2F74F
:10082000809584238C930F900F90CF91DF91089542
:10083000DF93CF93CDB7DEB781E00E9449000E94DD
:10084000BC000E9409050E9422058CE70E948F05CA
:10085000CF91DF910895DF93CF9300D0CDB7DEB76E
:100860009A83898389819A810E943E050F900F9017
:10087000CF91DF910895DF93CF93CDB7DEB784E6B4
:100880000E948F050E9417011092D5001092D4008B
:100890008091D4009091D5002091D5003091D60060
:1008A000B9014AE050E00E945A070E945606809122
:1008B000CC009091CD000E945606CF91DF91089513
:1008C000DF93CF93CDB7DEB7AFE5B0E0EFE5F0E073
:1008D000808180688C93CF91DF910895DF93CF93CF
:1008E000CDB7DEB7AFE5B0E0EFE5F0E080818F7720
:1008F0008C93CF91DF910895DF93CF9300D000D0F8
:1009000000D0CDB7DEB79C838B8313C088E29AE01A
:100910009A8389831E8289819A81009711F081E0F0
:100920008E8389819A8101979A8389838E81882316
:1009300089F71D828B819C81009711F081E08D8366
:100940008B819C8101979C838B838D818823F1F619
:1009500026960FB6F894DEBF0FBECDBFCF91DF91C4
:100960000895DF93CF93CDB7DEB780E00E944900B2
:100970000E94BC00CF91DF910895DF93CF9300D008
:1009800000D000D0CDB7DEB71C821B820E941701B9
:100990009C838B838B819C814E979C838B838B81E3
:1009A0009C819C01220F331F220F331FC901880F26
:1009B000991F880F991F820F931FAC014050584D0B
:1009C00020E032E08B819C81281B390BCA01B901E0
:1009D0000E944607CB019A83898389819A812D8160
:1009E0003E81B9014AE050E00E945A070E94560633
:1009F00085E690E00E94560682E390E00E947C0427
:100A000026960FB6F894DEBF0FBECDBFCF91DF9113
:100A10000895DF93CF93CDB7DEB7E3E5F0E085E04F
:100A20008083A9E5B0E0E9E5F0E0808181608C9306
:100A3000A8E5B0E0E8E5F0E0808181608C93CF919B
:100A4000DF910895DF93CF93CDB7DEB7A9E5B0E08E
:100A5000E9E5F0E0808181608C93CF91DF9108958A
:100A6000DF93CF93CDB7DEB7A9E5B0E0E9E5F0E0DD
:100A700080818E7F8C93CF91DF910895DF93CF9308
:100A800000D0CDB7DEB79A83898389819A8190930C
:100A9000CF008093CE000F900F90CF91DF910895FB
:100AA000DF93CF9300D0CDB7DEB79A838983898156
:100AB0009A819093D1008093D0000F900F90CF91A6
:100AC000DF9108951F920F920FB60F9211242F936A
:100AD0003F934F935F936F937F938F939F93AF93C6
:100AE000BF93EF93FF93DF93CF93CDB7DEB7E09142
:100AF000CE00F091CF000995CF91DF91FF91EF915A
:100B0000BF91AF919F918F917F916F915F914F9125
:100B10003F912F910F900FBE0F901F901895DF936C
:100B2000CF930F92CDB7DEB78983E2E5F0E08981FC
:100B300080830F90CF91DF910895DF93CF930F9231
:100B4000CDB7DEB78983ECE5F0E0898180830F9033
:100B5000CF91DF910895DF93CF9300D00F92CDB75F
:100B6000DEB71B821A82198289818F7B89838981F2
:100B70008F7E898389818F7D8983ABE2B0E0EBE250
:100B8000F0E0808182608C93EBE2F0E080818695DA
:100B9000882F90E081709070009729F483E390E0B3
:100BA0009B838A830EC0EBE2F0E080818695882FDC
:100BB00090E081709070882321F087E690E09B831D
:100BC0008A83E0E4F0E08A819B81892F99278083E2
:100BD000E9E2F0E08A818083AAE2B0E0EAE2F0E0B4
:100BE000808188608C93AAE2B0E0EAE2F0E0808144
:100BF00080618C9389818260898389818460898303
:100C0000AAE2B0E0EAE2F0E080818B7F8C938981F8
:100C100082608983898184608983898188608983EE
:100C200089818E7F8983898180688983E0E4F0E00F
:100C3000898180830F900F900F90CF91DF9108955D
:100C4000DF93CF93CDB7DEB7AAE2B0E0EAE2F0E0FF
:100C5000808180688C93CF91DF910895DF93CF934B
:100C6000CDB7DEB7AAE2B0E0EAE2F0E080818064CE
:100C70008C93CF91DF910895DF93CF930F92CDB7EF
:100C8000DEB78983EBE2F0E08081829586958770FC
:100C9000882F90E0817090700097A1F3ECE2F0E073
:100CA000898180830F90CF91DF910895DF93CF9357
:100CB00000D000D0CDB7DEB79C838B831A82198217
:100CC00010C02B813C8189819A81F901E80FF91FBD
:100CD000208189819A8101969A838983822F0E943B
:100CE0003C062B813C8189819A81F901E80FF91F2B
:100CF0008081882331F70F900F900F900F90CF9144
:100D0000DF910895DF93CF93CDB7DEB7EBE2F0E04C
:100D100080818823DCF7ECE2F0E08081CF91DF91E5
:100D20000895DF93CF9300D0CDB7DEB79A83898340
:100D300089819A819093D3008093D2000F900F9075
:100D4000CF91DF9108951F920F920FB60F92112449
:100D50002F933F934F935F936F937F938F939F93C3
:100D6000AF93BF93EF93FF93DF93CF93CDB7DEB7EE
:100D7000E091D200F091D3000995CF91DF91FF91DE
:100D8000EF91BF91AF919F918F917F916F915F9103
:100D90004F913F912F910F900FBE0F901F9018957C
:100DA000DF93CF93CDB7DEB70E9482068093D40045
:100DB000CF91DF910895DF93CF93CDB7DEB70E9437
:100DC0003B04CF91DF910895DF93CF93CDB7DEB78A
:100DD0000E9449010E9460040E94AB050E94200607
:100DE00080ED96E00E9491068091D400803369F4F2
:100DF0008CE690E00E9456060E94D8000E943005C2
:100E00008091D4008033E1F3EFCF8091D40081331F
:100E100071F483E890E00E9456060E94B10402C07B
:100E20000E94BD048091D4008133D1F3DDCF809145
:100E3000D400823381F485E990E00E9456060E9436
:100E4000180404C08BED96E00E942B048091D4001E
:100E50008233C1F3C9CF8091D400833349F487EA48
:100E600090E00E9456068091D4008333E1F3BCCF1A
:100E70008091D400843309F0B7CF89EB90E00E94D1
:100E800056068091D4008433E1F3AECFAA1BBB1B7E
:100E900051E107C0AA1FBB1FA617B70710F0A61B7A
:100EA000B70B881F991F5A95A9F780959095BC019B
:100EB000CD010895FB019F01E8944230C4F0453212
:100EC000B4F44A3029F497FB1EF4909581959F4F16
:100ED000642F77270E944607805D8A330CF0895D76
:100EE0008193CB010097A1F716F45DE25193108234
:100EF000C9010C947B07DC01FC01672F71917723FA
:100F0000E1F7329704C07C916D9370836291AE17C4
:0A0F1000BF07C8F30895F894FFCF5F
:100F1A00206D560A00204B6F686D0A000A416C6CFE
:100F2A002053656E736F727320417265204F464677
:100F3A000A0A004753522053656E736F7220497331
:100F4A00204F4E0A00454D472053656E736F72203D
:100F5A004973204F4E0A004543472053656E736F0D
:100F6A0072204973204F4E0A0054656D70205365F4
:0E0F7A006E736F72204973204F4E0A006000A4
:00000001FF
